{
  "contractName": "MultiSigWallet",
  "abi": [
    {
      "constant": true,
      "inputs": [
        {
          "name": "",
          "type": "uint256"
        }
      ],
      "name": "owners",
      "outputs": [
        {
          "name": "",
          "type": "address"
        }
      ],
      "payable": false,
      "stateMutability": "view",
      "type": "function"
    },
    {
      "constant": true,
      "inputs": [
        {
          "name": "",
          "type": "address"
        }
      ],
      "name": "isOwner",
      "outputs": [
        {
          "name": "",
          "type": "bool"
        }
      ],
      "payable": false,
      "stateMutability": "view",
      "type": "function"
    },
    {
      "constant": true,
      "inputs": [
        {
          "name": "",
          "type": "uint256"
        },
        {
          "name": "",
          "type": "address"
        }
      ],
      "name": "confirmations",
      "outputs": [
        {
          "name": "",
          "type": "bool"
        }
      ],
      "payable": false,
      "stateMutability": "view",
      "type": "function"
    },
    {
      "constant": true,
      "inputs": [
        {
          "name": "",
          "type": "uint256"
        }
      ],
      "name": "transactions",
      "outputs": [
        {
          "name": "destination",
          "type": "address"
        },
        {
          "name": "value",
          "type": "uint256"
        },
        {
          "name": "data",
          "type": "bytes"
        },
        {
          "name": "executed",
          "type": "bool"
        }
      ],
      "payable": false,
      "stateMutability": "view",
      "type": "function"
    },
    {
      "constant": true,
      "inputs": [],
      "name": "transactionCount",
      "outputs": [
        {
          "name": "",
          "type": "uint256"
        }
      ],
      "payable": false,
      "stateMutability": "view",
      "type": "function"
    },
    {
      "constant": true,
      "inputs": [],
      "name": "mToken",
      "outputs": [
        {
          "name": "",
          "type": "address"
        }
      ],
      "payable": false,
      "stateMutability": "view",
      "type": "function"
    },
    {
      "constant": true,
      "inputs": [],
      "name": "MAX_OWNER_COUNT",
      "outputs": [
        {
          "name": "",
          "type": "uint256"
        }
      ],
      "payable": false,
      "stateMutability": "view",
      "type": "function"
    },
    {
      "constant": true,
      "inputs": [],
      "name": "required",
      "outputs": [
        {
          "name": "",
          "type": "uint256"
        }
      ],
      "payable": false,
      "stateMutability": "view",
      "type": "function"
    },
    {
      "inputs": [
        {
          "name": "_owners",
          "type": "address[]"
        },
        {
          "name": "_required",
          "type": "uint256"
        },
        {
          "name": "_tokenAddress",
          "type": "address"
        }
      ],
      "payable": false,
      "stateMutability": "nonpayable",
      "type": "constructor"
    },
    {
      "payable": true,
      "stateMutability": "payable",
      "type": "fallback"
    },
    {
      "anonymous": false,
      "inputs": [
        {
          "indexed": true,
          "name": "sender",
          "type": "address"
        },
        {
          "indexed": true,
          "name": "transactionId",
          "type": "uint256"
        }
      ],
      "name": "Confirmation",
      "type": "event"
    },
    {
      "anonymous": false,
      "inputs": [
        {
          "indexed": true,
          "name": "sender",
          "type": "address"
        },
        {
          "indexed": true,
          "name": "transactionId",
          "type": "uint256"
        }
      ],
      "name": "Revocation",
      "type": "event"
    },
    {
      "anonymous": false,
      "inputs": [
        {
          "indexed": true,
          "name": "transactionId",
          "type": "uint256"
        }
      ],
      "name": "Submission",
      "type": "event"
    },
    {
      "anonymous": false,
      "inputs": [
        {
          "indexed": true,
          "name": "transactionId",
          "type": "uint256"
        }
      ],
      "name": "Execution",
      "type": "event"
    },
    {
      "anonymous": false,
      "inputs": [
        {
          "indexed": true,
          "name": "transactionId",
          "type": "uint256"
        }
      ],
      "name": "ExecutionFailure",
      "type": "event"
    },
    {
      "anonymous": false,
      "inputs": [
        {
          "indexed": true,
          "name": "sender",
          "type": "address"
        },
        {
          "indexed": false,
          "name": "value",
          "type": "uint256"
        }
      ],
      "name": "Deposit",
      "type": "event"
    },
    {
      "anonymous": false,
      "inputs": [
        {
          "indexed": true,
          "name": "owner",
          "type": "address"
        }
      ],
      "name": "OwnerAddition",
      "type": "event"
    },
    {
      "anonymous": false,
      "inputs": [
        {
          "indexed": true,
          "name": "owner",
          "type": "address"
        }
      ],
      "name": "OwnerRemoval",
      "type": "event"
    },
    {
      "anonymous": false,
      "inputs": [
        {
          "indexed": false,
          "name": "required",
          "type": "uint256"
        }
      ],
      "name": "RequirementChange",
      "type": "event"
    },
    {
      "constant": false,
      "inputs": [
        {
          "name": "owner",
          "type": "address"
        }
      ],
      "name": "addOwner",
      "outputs": [],
      "payable": false,
      "stateMutability": "nonpayable",
      "type": "function"
    },
    {
      "constant": false,
      "inputs": [
        {
          "name": "owner",
          "type": "address"
        }
      ],
      "name": "removeOwner",
      "outputs": [],
      "payable": false,
      "stateMutability": "nonpayable",
      "type": "function"
    },
    {
      "constant": false,
      "inputs": [
        {
          "name": "owner",
          "type": "address"
        },
        {
          "name": "newOwner",
          "type": "address"
        }
      ],
      "name": "replaceOwner",
      "outputs": [],
      "payable": false,
      "stateMutability": "nonpayable",
      "type": "function"
    },
    {
      "constant": false,
      "inputs": [
        {
          "name": "_required",
          "type": "uint256"
        }
      ],
      "name": "changeRequirement",
      "outputs": [],
      "payable": false,
      "stateMutability": "nonpayable",
      "type": "function"
    },
    {
      "constant": false,
      "inputs": [
        {
          "name": "destination",
          "type": "address"
        },
        {
          "name": "value",
          "type": "uint256"
        },
        {
          "name": "data",
          "type": "bytes"
        }
      ],
      "name": "submitTransaction",
      "outputs": [
        {
          "name": "transactionId",
          "type": "uint256"
        }
      ],
      "payable": false,
      "stateMutability": "nonpayable",
      "type": "function"
    },
    {
      "constant": false,
      "inputs": [
        {
          "name": "transactionId",
          "type": "uint256"
        }
      ],
      "name": "confirmTransaction",
      "outputs": [],
      "payable": false,
      "stateMutability": "nonpayable",
      "type": "function"
    },
    {
      "constant": false,
      "inputs": [
        {
          "name": "transactionId",
          "type": "uint256"
        }
      ],
      "name": "revokeConfirmation",
      "outputs": [],
      "payable": false,
      "stateMutability": "nonpayable",
      "type": "function"
    },
    {
      "constant": false,
      "inputs": [
        {
          "name": "txId",
          "type": "uint256"
        }
      ],
      "name": "executeTransaction",
      "outputs": [],
      "payable": false,
      "stateMutability": "nonpayable",
      "type": "function"
    },
    {
      "constant": true,
      "inputs": [
        {
          "name": "transactionId",
          "type": "uint256"
        }
      ],
      "name": "isConfirmed",
      "outputs": [
        {
          "name": "",
          "type": "bool"
        }
      ],
      "payable": false,
      "stateMutability": "view",
      "type": "function"
    },
    {
      "constant": true,
      "inputs": [
        {
          "name": "transactionId",
          "type": "uint256"
        }
      ],
      "name": "isExecuted",
      "outputs": [
        {
          "name": "",
          "type": "bool"
        }
      ],
      "payable": false,
      "stateMutability": "view",
      "type": "function"
    },
    {
      "constant": true,
      "inputs": [
        {
          "name": "transactionId",
          "type": "uint256"
        }
      ],
      "name": "getConfirmationCount",
      "outputs": [
        {
          "name": "count",
          "type": "uint256"
        }
      ],
      "payable": false,
      "stateMutability": "view",
      "type": "function"
    },
    {
      "constant": true,
      "inputs": [
        {
          "name": "pending",
          "type": "bool"
        },
        {
          "name": "executed",
          "type": "bool"
        }
      ],
      "name": "getTransactionCount",
      "outputs": [
        {
          "name": "count",
          "type": "uint256"
        }
      ],
      "payable": false,
      "stateMutability": "view",
      "type": "function"
    },
    {
      "constant": true,
      "inputs": [],
      "name": "getOwners",
      "outputs": [
        {
          "name": "",
          "type": "address[]"
        }
      ],
      "payable": false,
      "stateMutability": "view",
      "type": "function"
    },
    {
      "constant": true,
      "inputs": [
        {
          "name": "transactionId",
          "type": "uint256"
        }
      ],
      "name": "getConfirmations",
      "outputs": [
        {
          "name": "_confirmations",
          "type": "address[]"
        }
      ],
      "payable": false,
      "stateMutability": "view",
      "type": "function"
    },
    {
      "constant": true,
      "inputs": [
        {
          "name": "from",
          "type": "uint256"
        },
        {
          "name": "to",
          "type": "uint256"
        },
        {
          "name": "pending",
          "type": "bool"
        },
        {
          "name": "executed",
          "type": "bool"
        }
      ],
      "name": "getTransactionIds",
      "outputs": [
        {
          "name": "_transactionIds",
          "type": "uint256[]"
        }
      ],
      "payable": false,
      "stateMutability": "view",
      "type": "function"
    }
  ],
  "bytecode": "0x60806040523480156200001157600080fd5b506040516200177d3803806200177d8339810160409081528151602083015191830151920180519092906000908360328211806200004e57508181115b8062000058575080155b8062000062575081155b156200006d57600080fd5b600092505b855183101562000141576003600087858151811015156200008f57fe5b6020908102909101810151600160a060020a031682528101919091526040016000205460ff1680620000e257508583815181101515620000cb57fe5b90602001906020020151600160a060020a03166000145b15620000ed57600080fd5b60016003600088868151811015156200010257fe5b602090810291909101810151600160a060020a03168252810191909152604001600020805460ff19169115159190911790556001929092019162000072565b8551620001569060049060208901906200020f565b50600585905560008054600160a060020a031916600160a060020a0386811691909117808355604080517fba0e82d90000000000000000000000000000000000000000000000000000000081529051919092169263ba0e82d992600480820193602093909283900390910190829087803b158015620001d457600080fd5b505af1158015620001e9573d6000803e3d6000fd5b505050506040513d60208110156200020057600080fd5b50620002a39650505050505050565b82805482825590600052602060002090810192821562000267579160200282015b82811115620002675782518254600160a060020a031916600160a060020a0390911617825560209092019160019091019062000230565b506200027592915062000279565b5090565b620002a091905b8082111562000275578054600160a060020a031916815560010162000280565b90565b6114ca80620002b36000396000f3006080604052600436106101325763ffffffff7c0100000000000000000000000000000000000000000000000000000000600035041663025e7c278114610174578063173825d9146101a857806320ea8d86146101c95780632f54bf6e146101e15780633411c81c14610216578063547415251461023a5780637065cb481461026b57806376a6bf521461028c578063784547a7146102a45780638b51d13f146102bc5780639ace38c2146102d4578063a0e67e2b1461038f578063a8abe69a146103f4578063b5dc40c314610419578063b77bf60014610431578063ba51a6df14610446578063c01a8c841461045e578063c3b6f93914610476578063c64274741461048b578063d74f8edd146104f4578063dc8452cd14610509578063e20056e61461051e578063ee22610b14610545575b60003411156101725760408051348152905133917fe1fffcc4923d04b559f4d29a8bfc6cda04eb5b0d3c460751c2402c5c5cc9109c919081900360200190a25b005b34801561018057600080fd5b5061018c60043561055d565b60408051600160a060020a039092168252519081900360200190f35b3480156101b457600080fd5b50610172600160a060020a0360043516610585565b3480156101d557600080fd5b506101726004356106fc565b3480156101ed57600080fd5b50610202600160a060020a03600435166107b6565b604080519115158252519081900360200190f35b34801561022257600080fd5b50610202600435600160a060020a03602435166107cb565b34801561024657600080fd5b50610259600435151560243515156107eb565b60408051918252519081900360200190f35b34801561027757600080fd5b50610172600160a060020a0360043516610857565b34801561029857600080fd5b50610202600435610974565b3480156102b057600080fd5b5061020260043561098c565b3480156102c857600080fd5b50610259600435610a10565b3480156102e057600080fd5b506102ec600435610a7f565b6040518085600160a060020a0316600160a060020a031681526020018481526020018060200183151515158152602001828103825284818151815260200191508051906020019080838360005b83811015610351578181015183820152602001610339565b50505050905090810190601f16801561037e5780820380516001836020036101000a031916815260200191505b509550505050505060405180910390f35b34801561039b57600080fd5b506103a4610b3b565b60408051602080825283518183015283519192839290830191858101910280838360005b838110156103e05781810151838201526020016103c8565b505050509050019250505060405180910390f35b34801561040057600080fd5b506103a460043560243560443515156064351515610b9e565b34801561042557600080fd5b506103a4600435610cd7565b34801561043d57600080fd5b50610259610e50565b34801561045257600080fd5b50610172600435610e56565b34801561046a57600080fd5b50610172600435610ecd565b34801561048257600080fd5b5061018c610f8d565b34801561049757600080fd5b50604080516020600460443581810135601f8101849004840285018401909552848452610259948235600160a060020a0316946024803595369594606494920191908190840183828082843750949750610f9c9650505050505050565b34801561050057600080fd5b50610259610fbb565b34801561051557600080fd5b50610259610fc0565b34801561052a57600080fd5b50610172600160a060020a0360043581169060243516610fc6565b34801561055157600080fd5b50610172600435611150565b600480548290811061056b57fe5b600091825260209091200154600160a060020a0316905081565b600033301461059357600080fd5b600160a060020a038216600090815260036020526040902054829060ff1615156105bc57600080fd5b600160a060020a0383166000908152600360205260408120805460ff1916905591505b600454600019018210156106975782600160a060020a031660048381548110151561060657fe5b600091825260209091200154600160a060020a0316141561068c5760048054600019810190811061063357fe5b60009182526020909120015460048054600160a060020a03909216918490811061065957fe5b9060005260206000200160006101000a815481600160a060020a030219169083600160a060020a03160217905550610697565b6001909101906105df565b6004805460001901906106aa90826113dd565b5060045460055411156106c3576004546106c390610e56565b604051600160a060020a038416907f8001553a916ef2f495d26a907cc54d96ed840d7bda71e73194bf5a9df7a76b9090600090a2505050565b3360008181526003602052604090205460ff16151561071a57600080fd5b60008281526002602090815260408083203380855292529091205483919060ff16151561074657600080fd5b600084815260016020526040902060030154849060ff161561076757600080fd5b6000858152600260209081526040808320338085529252808320805460ff191690555187927ff6a317157440607f36269043eb55f1287a5a19ba2216afeab88cd46cbcfb88e991a35050505050565b60036020526000908152604090205460ff1681565b600260209081526000928352604080842090915290825290205460ff1681565b6000805b60065481101561085057838015610818575060008181526001602052604090206003015460ff16155b8061083c575082801561083c575060008181526001602052604090206003015460ff165b15610848576001820191505b6001016107ef565b5092915050565b33301461086357600080fd5b600160a060020a038116600090815260036020526040902054819060ff161561088b57600080fd5b81600160a060020a03811615156108a157600080fd5b60048054905060010160055460328211806108bb57508181115b806108c4575080155b806108cd575081155b156108d757600080fd5b600160a060020a038516600081815260036020526040808220805460ff1916600190811790915560048054918201815583527f8a35acfbc15ff81a39ae7d344fd709f28e8600b4aa8c65c6b64bfe7fe36bd19b01805473ffffffffffffffffffffffffffffffffffffffff191684179055517ff39e6e1eb0edcf53c221607b54b00cd28f3196fed0a24994dc308b8f611b682d9190a25050505050565b60009081526001602052604090206003015460ff1690565b600080805b600454811015610a0957600084815260026020526040812060048054919291849081106109ba57fe5b6000918252602080832090910154600160a060020a0316835282019290925260400190205460ff16156109ee576001820191505b600554821415610a015760019250610a09565b600101610991565b5050919050565b6000805b600454811015610a795760008381526002602052604081206004805491929184908110610a3d57fe5b6000918252602080832090910154600160a060020a0316835282019290925260400190205460ff1615610a71576001820191505b600101610a14565b50919050565b6001602081815260009283526040928390208054818401546002808401805488516101009882161598909802600019011691909104601f8101869004860287018601909752868652600160a060020a039092169590949293830182828015610b285780601f10610afd57610100808354040283529160200191610b28565b820191906000526020600020905b815481529060010190602001808311610b0b57829003601f168201915b5050506003909301549192505060ff1684565b60606004805480602002602001604051908101604052809291908181526020018280548015610b9357602002820191906000526020600020905b8154600160a060020a03168152600190910190602001808311610b75575b505050505090505b90565b606080600080600654604051908082528060200260200182016040528015610bd0578160200160208202803883390190505b50925060009150600090505b600654811015610c5757858015610c05575060008181526001602052604090206003015460ff16155b80610c295750848015610c29575060008181526001602052604090206003015460ff165b15610c4f57808383815181101515610c3d57fe5b60209081029091010152600191909101905b600101610bdc565b878703604051908082528060200260200182016040528015610c83578160200160208202803883390190505b5093508790505b86811015610ccc578281815181101515610ca057fe5b9060200190602002015184898303815181101515610cba57fe5b60209081029091010152600101610c8a565b505050949350505050565b606080600080600480549050604051908082528060200260200182016040528015610d0c578160200160208202803883390190505b50925060009150600090505b600454811015610dc95760008581526002602052604081206004805491929184908110610d4157fe5b6000918252602080832090910154600160a060020a0316835282019290925260400190205460ff1615610dc1576004805482908110610d7c57fe5b6000918252602090912001548351600160a060020a0390911690849084908110610da257fe5b600160a060020a03909216602092830290910190910152600191909101905b600101610d18565b81604051908082528060200260200182016040528015610df3578160200160208202803883390190505b509350600090505b81811015610e48578281815181101515610e1157fe5b906020019060200201518482815181101515610e2957fe5b600160a060020a03909216602092830290910190910152600101610dfb565b505050919050565b60065481565b333014610e6257600080fd5b600454816032821180610e7457508181115b80610e7d575080155b80610e86575081155b15610e9057600080fd5b60058390556040805184815290517fa3f1ee9126a074d9326c682f561767f710e927faa811f7a99829d49dc421797a9181900360200190a1505050565b3360008181526003602052604090205460ff161515610eeb57600080fd5b6000828152600160205260409020548290600160a060020a03161515610f1057600080fd5b60008381526002602090815260408083203380855292529091205484919060ff1615610f3b57600080fd5b6000858152600260209081526040808320338085529252808320805460ff191660011790555187927f4a504a94899432a9846e1aa406dceb1bcfd538bb839071d49d1e5e23f5be30ef91a35050505050565b600054600160a060020a031681565b6000610fa98484846112c6565b9050610fb481610ecd565b9392505050565b603281565b60055481565b6000333014610fd457600080fd5b600160a060020a038316600090815260036020526040902054839060ff161515610ffd57600080fd5b600160a060020a038316600090815260036020526040902054839060ff161561102557600080fd5b600092505b6004548310156110b65784600160a060020a031660048481548110151561104d57fe5b600091825260209091200154600160a060020a031614156110ab578360048481548110151561107857fe5b9060005260206000200160006101000a815481600160a060020a030219169083600160a060020a031602179055506110b6565b60019092019161102a565b600160a060020a03808616600081815260036020526040808220805460ff1990811690915593881682528082208054909416600117909355915190917f8001553a916ef2f495d26a907cc54d96ed840d7bda71e73194bf5a9df7a76b9091a2604051600160a060020a038516907ff39e6e1eb0edcf53c221607b54b00cd28f3196fed0a24994dc308b8f611b682d90600090a25050505050565b600081815260016020526040902060030154819060ff161561117157600080fd5b61117a8261098c565b156112c25760008281526001602081815260409283902060038101805460ff1916841790558054818401546002928301805487516101009782161597909702600019011693909304601f810185900485028601850190965285855261124895600160a060020a0390921694909391929091839083018282801561123e5780601f106112135761010080835404028352916020019161123e565b820191906000526020600020905b81548152906001019060200180831161122157829003601f168201915b50505050506113ba565b1561127d5760405182907f33e13ecb54c3076d8e8bb8c2881800a4d972b792045ffae98fdf46df365fed7590600090a26112c2565b60405182907f526441bb6c1aba3c9a4a6ca1d6545da9c2333c8c48343ef398eb858d72b7923690600090a26000828152600160205260409020600301805460ff191690555b5050565b600083600160a060020a03811615156112de57600080fd5b60065460408051608081018252600160a060020a038881168252602080830189815283850189815260006060860181905287815260018085529690208551815473ffffffffffffffffffffffffffffffffffffffff191695169490941784559051948301949094559251805194965091939092611362926002850192910190611406565b50606091909101516003909101805460ff191691151591909117905560068054600101905560405182907fc0ba8fe4b176c1714197d43b9cc6bcf797a4a7461c5fe8d0ef6e184ae7601e5190600090a2509392505050565b6000806040516020840160008287838a8c6187965a03f198975050505050505050565b81548183558181111561140157600083815260209020611401918101908301611484565b505050565b828054600181600116156101000203166002900490600052602060002090601f016020900481019282601f1061144757805160ff1916838001178555611474565b82800160010185558215611474579182015b82811115611474578251825591602001919060010190611459565b50611480929150611484565b5090565b610b9b91905b80821115611480576000815560010161148a5600a165627a7a723058206f28e9f8b7d2a872a07113b7f085fd828352b80ea6f4205e2f3ef5aecc852c290029",
  "source": "pragma solidity ^0.4.24;\n\nimport './Token.sol';\n\n/// @title Multisignature wallet - Allows multiple parties to agree on transactions before execution.\ncontract MultiSigWallet {\n\n    Token public mToken;\n\n    uint constant public MAX_OWNER_COUNT = 50;\n\n    event Confirmation(address indexed sender, uint indexed transactionId);\n    event Revocation(address indexed sender, uint indexed transactionId);\n    event Submission(uint indexed transactionId);\n    event Execution(uint indexed transactionId);\n    event ExecutionFailure(uint indexed transactionId);\n    event Deposit(address indexed sender, uint value);\n    event OwnerAddition(address indexed owner);\n    event OwnerRemoval(address indexed owner);\n    event RequirementChange(uint required);\n\n    mapping (uint => Transaction) public transactions;\n    mapping (uint => mapping (address => bool)) public confirmations;\n    mapping (address => bool) public isOwner;\n    address[] public owners;\n    uint public required;\n    uint public transactionCount;\n\n    struct Transaction {\n        address destination;\n        uint value;\n        bytes data;\n        bool executed;\n    }\n\n    modifier onlyWallet() {\n        if (msg.sender != address(this))\n            revert();\n        _;\n    }\n\n    modifier ownerDoesNotExist(address owner) {\n        if (isOwner[owner])\n            revert();\n        _;\n    }\n\n    modifier ownerExists(address owner) {\n        if (!isOwner[owner])\n            revert();\n        _;\n    }\n\n    modifier transactionExists(uint transactionId) {\n        if (transactions[transactionId].destination == 0)\n            revert();\n        _;\n    }\n\n    modifier confirmed(uint transactionId, address owner) {\n        if (!confirmations[transactionId][owner])\n            revert();\n        _;\n    }\n\n    modifier notConfirmed(uint transactionId, address owner) {\n        if (confirmations[transactionId][owner])\n            revert();\n        _;\n    }\n\n    modifier notExecuted(uint transactionId) {\n        if (transactions[transactionId].executed)\n            revert();\n        _;\n    }\n\n    modifier notNull(address _address) {\n        if (_address == 0)\n            revert();\n        _;\n    }\n\n    modifier validRequirement(uint ownerCount, uint _required) {\n        if (   ownerCount > MAX_OWNER_COUNT\n            || _required > ownerCount\n            || _required == 0\n            || ownerCount == 0)\n            revert();\n        _;\n    }\n\n    /// @dev Fallback function allows to deposit ether.\n    function()\n        public\n        payable\n    {\n        if (msg.value > 0)\n            emit Deposit(msg.sender, msg.value);\n    }\n\n    /*\n     * Public functions\n     */\n    /// @dev Contract constructor sets initial owners and required number of confirmations.\n    /// @param _owners List of initial owners.\n    /// @param _required Number of required confirmations.\n    constructor(address[] _owners, uint _required, address _tokenAddress)\n        public\n        validRequirement(_owners.length, _required)\n    {\n        for (uint i=0; i<_owners.length; i++) {\n            if (isOwner[_owners[i]] || _owners[i] == 0)\n                revert();\n            isOwner[_owners[i]] = true;\n        }\n        owners = _owners;\n        required = _required;\n        // instantiate token Contract\n        mToken = Token(_tokenAddress);\n        // claim initial supply of tokens\n        mToken.claimInitTokens();\n    }\n\n    /// @dev Allows to add a new owner. Transaction has to be sent by wallet.\n    /// @param owner Address of new owner.\n    function addOwner(address owner)\n        public\n        onlyWallet\n        ownerDoesNotExist(owner)\n        notNull(owner)\n        validRequirement(owners.length + 1, required)\n    {\n        isOwner[owner] = true;\n        owners.push(owner);\n        emit OwnerAddition(owner);\n    }\n\n    /// @dev Allows to remove an owner. Transaction has to be sent by wallet.\n    /// @param owner Address of owner.\n    function removeOwner(address owner)\n        public\n        onlyWallet\n        ownerExists(owner)\n    {\n        isOwner[owner] = false;\n        for (uint i=0; i<owners.length - 1; i++)\n            if (owners[i] == owner) {\n                owners[i] = owners[owners.length - 1];\n                break;\n            }\n        owners.length -= 1;\n        if (required > owners.length)\n            changeRequirement(owners.length);\n        emit OwnerRemoval(owner);\n    }\n\n    /// @dev Allows to replace an owner with a new owner. Transaction has to be sent by wallet.\n    /// @param owner Address of owner to be replaced.\n    /// @param owner Address of new owner.\n    function replaceOwner(address owner, address newOwner)\n        public\n        onlyWallet\n        ownerExists(owner)\n        ownerDoesNotExist(newOwner)\n    {\n        for (uint i=0; i<owners.length; i++)\n            if (owners[i] == owner) {\n                owners[i] = newOwner;\n                break;\n            }\n        isOwner[owner] = false;\n        isOwner[newOwner] = true;\n        emit OwnerRemoval(owner);\n        emit OwnerAddition(newOwner);\n    }\n\n    /// @dev Allows to change the number of required confirmations. Transaction has to be sent by wallet.\n    /// @param _required Number of required confirmations.\n    function changeRequirement(uint _required)\n        public\n        onlyWallet\n        validRequirement(owners.length, _required)\n    {\n        required = _required;\n        emit RequirementChange(_required);\n    }\n\n    /// @dev Allows an owner to submit and confirm a transaction.\n    /// @param destination Transaction target address.\n    /// @param value Transaction ether value.\n    /// @param data Transaction data payload.\n    /// @return Returns transaction ID.\n    function submitTransaction(address destination, uint value, bytes data)\n        public\n        returns (uint transactionId)\n    {\n        transactionId = addTransaction(destination, value, data);\n        confirmTransaction(transactionId);\n    }\n\n    /// @dev Allows an owner to confirm a transaction.\n    /// @param transactionId Transaction ID.\n    function confirmTransaction(uint transactionId)\n        public\n        ownerExists(msg.sender)\n        transactionExists(transactionId)\n        notConfirmed(transactionId, msg.sender)\n    {\n        confirmations[transactionId][msg.sender] = true;\n        emit Confirmation(msg.sender, transactionId);\n    }\n\n    /// @dev Allows an owner to revoke a confirmation for a transaction.\n    /// @param transactionId Transaction ID.\n    function revokeConfirmation(uint transactionId)\n        public\n        ownerExists(msg.sender)\n        confirmed(transactionId, msg.sender)\n        notExecuted(transactionId)\n    {\n        confirmations[transactionId][msg.sender] = false;\n        emit Revocation(msg.sender, transactionId);\n    }\n\n    /// @dev Allows anyone to execute a confirmed transaction. \n    /// @param txId Transaction ID.\n    function executeTransaction(uint txId)\n        public\n        notExecuted(txId)\n    {\n        if (isConfirmed(txId)) {\n            transactions[txId].executed = true;\n            // transfer tokens from MultiSigWallet to receiver\n            if (external_call(transactions[txId].destination, transactions[txId].value, transactions[txId].data.length, transactions[txId].data))\n                emit Execution(txId);\n            else {\n                emit ExecutionFailure(txId);\n                transactions[txId].executed = false;\n            }\n        }\n    }\n\n    // call has been separated into its own function in order to take advantage\n    // of the Solidity's code generator to produce a loop that copies tx.data into memory.\n    function external_call(address destination, uint value, uint dataLength, bytes data) private returns (bool) {\n        bool result;\n        assembly {\n            let x := mload(0x40)   // \"Allocate\" memory for output (0x40 is where \"free memory\" pointer is stored by convention)\n            let d := add(data, 32) // First 32 bytes are the padded length of data, so exclude that\n            result := call(\n                sub(gas, 34710),   // 34710 is the value that solidity is currently emitting\n                                   // It includes callGas (700) + callVeryLow (3, to pay for SUB) + callValueTransferGas (9000) +\n                                   // callNewAccountGas (25000, in case the destination address does not exist and needs creating)\n                destination,\n                value,\n                d,\n                dataLength,        // Size of the input (in bytes) - this is what fixes the padding problem\n                x,\n                0                  // Output is ignored, therefore the output size is zero\n            )\n        }\n        return result;\n    }\n\n    /// @dev Returns the confirmation status of a transaction.\n    /// @param transactionId Transaction ID.\n    /// @return Confirmation status.\n    function isConfirmed(uint transactionId)\n        public\n        constant\n        returns (bool)\n    {\n        uint count = 0;\n        for (uint i=0; i<owners.length; i++) {\n            if (confirmations[transactionId][owners[i]])\n                count += 1;\n            if (count == required)\n                return true;\n        }\n    }\n\n    /// @dev Returns the Execution status of a transaction.\n    /// @param transactionId Transaction ID.\n    /// @return Execution status.\n    function isExecuted(uint transactionId)\n        public\n        view\n        returns (bool)\n    {\n      return transactions[transactionId].executed;\n    }\n\n    /*\n     * Internal functions\n     */\n    /// @dev Adds a new transaction to the transaction mapping, if transaction does not exist yet.\n    /// @param destination Transaction target address.\n    /// @param value Transaction ether value.\n    /// @param data Transaction data payload.\n    /// @return Returns transaction ID.\n    function addTransaction(address destination, uint value, bytes data)\n        internal\n        notNull(destination)\n        returns (uint transactionId)\n    {\n        transactionId = transactionCount;\n        transactions[transactionId] = Transaction({\n            destination: destination,\n            value: value,\n            data: data,\n            executed: false\n        });\n        transactionCount += 1;\n        emit Submission(transactionId);\n    }\n\n    /*\n     * Web3 call functions\n     */\n    /// @dev Returns number of confirmations of a transaction.\n    /// @param transactionId Transaction ID.\n    /// @return Number of confirmations.\n    function getConfirmationCount(uint transactionId)\n        public\n        constant\n        returns (uint count)\n    {\n        for (uint i=0; i<owners.length; i++)\n            if (confirmations[transactionId][owners[i]])\n                count += 1;\n    }\n\n    /// @dev Returns total number of transactions after filers are applied.\n    /// @param pending Include pending transactions.\n    /// @param executed Include executed transactions.\n    /// @return Total number of transactions after filters are applied.\n    function getTransactionCount(bool pending, bool executed)\n        public\n        constant\n        returns (uint count)\n    {\n        for (uint i=0; i<transactionCount; i++)\n            if (   pending && !transactions[i].executed\n                || executed && transactions[i].executed)\n                count += 1;\n    }\n\n    /// @dev Returns list of owners.\n    /// @return List of owner addresses.\n    function getOwners()\n        public\n        constant\n        returns (address[])\n    {\n        return owners;\n    }\n\n    /// @dev Returns array with owner addresses, which confirmed transaction.\n    /// @param transactionId Transaction ID.\n    /// @return Returns array of owner addresses.\n    function getConfirmations(uint transactionId)\n        public\n        constant\n        returns (address[] _confirmations)\n    {\n        address[] memory confirmationsTemp = new address[](owners.length);\n        uint count = 0;\n        uint i;\n        for (i=0; i<owners.length; i++)\n            if (confirmations[transactionId][owners[i]]) {\n                confirmationsTemp[count] = owners[i];\n                count += 1;\n            }\n        _confirmations = new address[](count);\n        for (i=0; i<count; i++)\n            _confirmations[i] = confirmationsTemp[i];\n    }\n\n    /// @dev Returns list of transaction IDs in defined range.\n    /// @param from Index start position of transaction array.\n    /// @param to Index end position of transaction array.\n    /// @param pending Include pending transactions.\n    /// @param executed Include executed transactions.\n    /// @return Returns array of transaction IDs.\n    function getTransactionIds(uint from, uint to, bool pending, bool executed)\n        public\n        constant\n        returns (uint[] _transactionIds)\n    {\n        uint[] memory transactionIdsTemp = new uint[](transactionCount);\n        uint count = 0;\n        uint i;\n        for (i=0; i<transactionCount; i++)\n            if (   pending && !transactions[i].executed\n                || executed && transactions[i].executed)\n            {\n                transactionIdsTemp[count] = i;\n                count += 1;\n            }\n        _transactionIds = new uint[](to - from);\n        for (i=from; i<to; i++)\n            _transactionIds[i - from] = transactionIdsTemp[i];\n    }\n}\n",
  "sourcePath": "/Users/fancy/Documents/Ocean Protocol/research/9-token_distribution/erc20_multisigwallet/contracts/MultiSigWallet.sol",
  "compiler": {
    "name": "solc",
    "version": "0.4.24+commit.e67f0147.Emscripten.clang"
  },
  "schemaVersion": "2.0.0",
  "updatedAt": "2018-08-28T00:04:09.520Z"
}