{
  "contractName": "UserComments",
  "abi": [
    {
      "constant": true,
      "inputs": [
        {
          "name": "",
          "type": "uint256"
        }
      ],
      "name": "comments",
      "outputs": [
        {
          "name": "comment",
          "type": "string"
        },
        {
          "name": "from",
          "type": "address"
        },
        {
          "name": "to",
          "type": "address"
        },
        {
          "name": "aboutBounty",
          "type": "bool"
        },
        {
          "name": "bountyId",
          "type": "uint256"
        },
        {
          "name": "time",
          "type": "uint256"
        }
      ],
      "payable": false,
      "stateMutability": "view",
      "type": "function"
    },
    {
      "anonymous": false,
      "inputs": [
        {
          "indexed": false,
          "name": "_comment",
          "type": "string"
        },
        {
          "indexed": false,
          "name": "_from",
          "type": "address"
        },
        {
          "indexed": false,
          "name": "_to",
          "type": "address"
        },
        {
          "indexed": false,
          "name": "_time",
          "type": "uint256"
        }
      ],
      "name": "CommentAdded",
      "type": "event"
    },
    {
      "constant": false,
      "inputs": [
        {
          "name": "_comment",
          "type": "string"
        },
        {
          "name": "_to",
          "type": "address"
        },
        {
          "name": "_aboutBounty",
          "type": "bool"
        },
        {
          "name": "_bountyId",
          "type": "uint256"
        }
      ],
      "name": "addComment",
      "outputs": [],
      "payable": false,
      "stateMutability": "nonpayable",
      "type": "function"
    },
    {
      "constant": true,
      "inputs": [],
      "name": "numComments",
      "outputs": [
        {
          "name": "",
          "type": "uint256"
        }
      ],
      "payable": false,
      "stateMutability": "view",
      "type": "function"
    },
    {
      "constant": true,
      "inputs": [
        {
          "name": "_commentId",
          "type": "uint256"
        }
      ],
      "name": "getComment",
      "outputs": [
        {
          "name": "",
          "type": "string"
        },
        {
          "name": "",
          "type": "address"
        },
        {
          "name": "",
          "type": "address"
        },
        {
          "name": "",
          "type": "bool"
        },
        {
          "name": "",
          "type": "uint256"
        },
        {
          "name": "",
          "type": "uint256"
        }
      ],
      "payable": false,
      "stateMutability": "view",
      "type": "function"
    }
  ],
  "bytecode": "0x608060405234801561001057600080fd5b50610876806100206000396000f3006080604052600436106100615763ffffffff7c01000000000000000000000000000000000000000000000000000000006000350416630800e30081146100665780638ebb4c1514610141578063b85a6a2014610159578063f03b7c7014610180575b600080fd5b34801561007257600080fd5b5061007e6004356101f1565b604051808060200187600160a060020a0316600160a060020a0316815260200186600160a060020a0316600160a060020a0316815260200185151515158152602001848152602001838152602001828103825288818151815260200191508051906020019080838360005b838110156101015781810151838201526020016100e9565b50505050905090810190601f16801561012e5780820380516001836020036101000a031916815260200191505b5097505050505050505060405180910390f35b34801561014d57600080fd5b5061007e60043561039c565b34801561016557600080fd5b5061016e61048f565b60408051918252519081900360200190f35b34801561018c57600080fd5b506040805160206004803580820135601f81018490048402850184019095528484526101ef94369492936024939284019190819084018382808284375094975050600160a060020a03853516955050505050602081013515159060400135610496565b005b60606000806000806000866000805490508110151561020f57600080fd5b600080548990811061021d57fe5b906000526020600020906005020160000160008981548110151561023d57fe5b600091825260208220600160059092020101548154600160a060020a0390911691908b90811061026957fe5b600091825260208220600260059092020101548154600160a060020a0390911691908c90811061029557fe5b906000526020600020906005020160020160149054906101000a900460ff1660008c8154811015156102c357fe5b90600052602060002090600502016003015460008d8154811015156102e457fe5b600091825260209182902060046005909202010154865460408051601f60026000196101006001871615020190941693909304928301859004850281018501909152818152919288919083018282801561037f5780601f106103545761010080835404028352916020019161037f565b820191906000526020600020905b81548152906001019060200180831161036257829003601f168201915b505050505095509650965096509650965096505091939550919395565b60008054829081106103aa57fe5b60009182526020918290206005919091020180546040805160026001841615610100026000190190931692909204601f8101859004850283018501909152808252919350918391908301828280156104435780601f1061041857610100808354040283529160200191610443565b820191906000526020600020905b81548152906001019060200180831161042657829003601f168201915b505050506001830154600284015460038501546004909501549394600160a060020a039283169492821693507401000000000000000000000000000000000000000090910460ff169186565b6000545b90565b81156105b6576040805160c0810182528581523360208083019190915260009282018390528415156060830152608082018490524260a08301528254600181018085559380528251805160059092027f290decd9548b62a8d60345a988386fc84ba6bc95484008f6362f93160ef3e5630192610517928492909101906107b2565b50602082015160018201805473ffffffffffffffffffffffffffffffffffffffff19908116600160a060020a0393841617909155604084015160028401805460608701519316919093161774ff0000000000000000000000000000000000000000191674010000000000000000000000000000000000000000911515919091021790556080820151600382015560a090910151600490910155506106d7565b6040805160c08101825285815233602080830191909152600160a060020a038616928201929092528315156060820152608081018390524260a0820152600080546001810180835591805282518051929460059092027f290decd9548b62a8d60345a988386fc84ba6bc95484008f6362f93160ef3e563019261063c92849201906107b2565b50602082015160018201805473ffffffffffffffffffffffffffffffffffffffff19908116600160a060020a0393841617909155604084015160028401805460608701519316919093161774ff0000000000000000000000000000000000000000191674010000000000000000000000000000000000000000911515919091021790556080820151600382015560a090910151600490910155505b7fd74a4d76d61dbd520af23f64e60f13dec33299bae87e087853906a10a63cde8184338542604051808060200185600160a060020a0316600160a060020a0316815260200184600160a060020a0316600160a060020a03168152602001838152602001828103825286818151815260200191508051906020019080838360005b8381101561076f578181015183820152602001610757565b50505050905090810190601f16801561079c5780820380516001836020036101000a031916815260200191505b509550505050505060405180910390a150505050565b828054600181600116156101000203166002900490600052602060002090601f016020900481019282601f106107f357805160ff1916838001178555610820565b82800160010185558215610820579182015b82811115610820578251825591602001919060010190610805565b5061082c929150610830565b5090565b61049391905b8082111561082c57600081556001016108365600a165627a7a7230582041eccdd820b592a26c2e0999c9e6f6f70fbabab511f70e45047b4e026bb48cb40029",
  "source": "pragma solidity ^0.4.24;\n\n\n/// @title User Comments\n/// @author Mark Beylin <mark.beylin@consensys.net>\n\ncontract UserComments {\n    event CommentAdded(string _comment, address _from, address _to, uint _time);\n\n    struct Comment{\n      string comment;\n      address from;\n      address to;\n      bool aboutBounty;\n      uint bountyId;\n      uint time;\n    }\n\n    Comment[] public comments;\n\n    modifier isValidCommentIndex(uint i){\n      require (i < comments.length);\n      _;\n    }\n\n    function addComment(string _comment, address _to, bool _aboutBounty, uint _bountyId)\n    public\n    {\n      if (_aboutBounty){\n        comments.push(Comment(_comment, msg.sender, address(0), _aboutBounty, _bountyId, block.timestamp));\n      } else {\n        comments.push(Comment(_comment, msg.sender, _to, _aboutBounty, _bountyId, block.timestamp));\n      }\n      CommentAdded(_comment, msg.sender, _to, block.timestamp);\n    }\n\n    function numComments()\n    public\n    constant\n    returns (uint){\n      return comments.length;\n    }\n\n    function getComment(uint _commentId)\n    isValidCommentIndex(_commentId)\n    public\n    constant\n    returns (string, address, address, bool, uint, uint){\n      return (comments[_commentId].comment,\n              comments[_commentId].from,\n              comments[_commentId].to,\n              comments[_commentId].aboutBounty,\n              comments[_commentId].bountyId,\n              comments[_commentId].time);\n    }\n}\n",
  "sourcePath": "/Users/fancy/Documents/Ocean Protocol/research/9-token_distribution/erc20_token/contracts/Comments.sol",
  "compiler": {
    "name": "solc",
    "version": "0.4.24+commit.e67f0147.Emscripten.clang"
  },
  "schemaVersion": "2.0.0",
  "updatedAt": "2018-07-30T22:51:12.821Z"
}